:100000000C9462000C948A000C948A000C948A0070
:100010000C948A000C948A000C948A000C945F065D
:100020000C948A000C948A000C948A000C948A0028
:100030000C948A000C948A000C948A000C948A0018
:100040000C943D090C948A000C94ED020C94C702A8
:100050000C948A000C948A000C948A000C948A00F8
:100060000C9496030C948A000000000023002600E4
:10007000290000000000240027002A0000000000E2
:10008000250028002B0004040404040404040202D4
:100090000202020203030303030301020408102007
:1000A0004080010204081020010204081020000012
:1000B0000008000201000003040700000000000027
:1000C0000000870C11241FBECFEFD8E0DEBFCDBFEC
:1000D00011E0A0E0B1E0E2ECFAE102C005900D927F
:1000E000A438B107D9F723E0A4E8B1E001C01D921C
:1000F000AE38B207E1F710E0C2E6D0E004C02197C5
:10010000FE010E94590DC136D107C9F70E94870927
:100110000C945F0D0C940000CF92DF92EF92FF924F
:100120000F931F93CF93DF936C017A018B01C0E093
:10013000D0E0CE15DF0581F0D8016D918D01D6019B
:10014000ED91FC910190F081E02DC6010995892B7C
:1001500011F02196EECF7E01C701DF91CF911F9163
:100160000F91FF90EF90DF90CF900895FC01538D99
:10017000448D252F30E0842F90E0821B930B541781
:1001800010F0CF96089501970895FC01918D828D0E
:10019000981761F0828DDF01A80FB11D5D968C91DB
:1001A000928D9F5F9F73928F90E008958FEF9FEFE6
:1001B0000895FC01918D828D981731F0828DE80FA2
:1001C000F11D858D90E008958FEF9FEF0895FC015C
:1001D000918D228D892F90E0805C9F4F821B910929
:1001E0008F739927089586E592E00E94E70021E049
:1001F000892B09F420E0822F0895FC01848DDF0112
:10020000A80FB11DA35ABF4F2C91848D90E0019689
:100210008F739927848FA689B7892C93A089B18978
:100220008C91837080648C93938D848D981306C019
:100230000288F389E02D80818F7D80830895EF927D
:10024000FF920F931F93CF93DF93EC0181E0888F90
:100250009B8D8C8D981305C0E889F989808185FD77
:1002600026C0F62E0B8D10E00F5F1F4F0F73112766
:10027000E02E8C8DE8120CC00FB607FCFACFE8898F
:10028000F989808185FFF5CFCE010E94FD00F1CF75
:100290008B8DFE01E80FF11DE35AFF4FF0829FB7EF
:1002A000F8940B8FEA89FB89808180620AC09FB72E
:1002B000F894EE89FF896083E889F98980818370E9
:1002C000806480839FBF81E090E0DF91CF911F9198
:1002D0000F91FF90EF900895CF93DF93EC01888DFD
:1002E0008823C9F0EA89FB89808185FD05C0A8893A
:1002F000B9898C9186FD0FC00FB607FCF5CF8081C0
:1003000085FFF2CFA889B9898C9185FFEDCFCE0109
:100310000E94FD00E7CFDF91CF91089580E090E04B
:10032000892B29F00E94F30081110C94000008959C
:100330004091CD01262F30E0240F311D21323105AF
:10034000DCF420914C022430C9F4FC0180E090E000
:10035000861758F43091CD012191DC01A355BE4F91
:10036000A30FB11D2C930196F3CF8091CD01680F9F
:100370006093CD0180E0089581E0089582E00895C2
:10038000089508950895E091F9018091F801E81722
:1003900030F4F0E0E45DFD4F808190E008958FEF50
:1003A0009FEF08959091F9018091F801981750F40A
:1003B000E92FF0E0E45DFD4F208130E09F5F9093F6
:1003C000F90102C02FEF3FEFC90108958091F801B4
:1003D00090E02091F901821B91090895CF92DF925C
:1003E000EF92FF920F931F93CF93DF937C01CB018A
:1003F0008A012091F101222389F0EB016B01C40EE7
:10040000D51ECC15DD0569F06991D701ED91FC9100
:100410000190F081E02DC7010995F3CF642F0E9470
:100420009801C801DF91CF911F910F91FF90EF903C
:10043000DF90CF900895CF93DF931F92CDB7DEB7B3
:1004400069832091F1012223D1F02091F60120321D
:1004500040F021E030E0FC013383228380E090E033
:1004600015C08091F701E82FF0E0E457FE4F998125
:1004700090838F5F8093F7018093F60105C061E060
:10048000CE0101960E94980181E090E00F90DF91EB
:10049000CF9108950895089580E090E00895CF9257
:1004A000DF92EF92FF920F931F93CF93DF9301E0C0
:1004B00010E002C0000F111F6A95E2F77C012EE6E2
:1004C000E20EF11C6C01EBE7CE0ED11CF60160814F
:1004D000613208F060E2FC01E658FF4F80810E9423
:1004E00028081092F9018093F801C7010E94D201F7
:1004F000EC01F6018081823040F0C7010E94D201F8
:1005000020E030E0382FC22BD32BC023D12381E051
:1005100090E0C017D10711F080E090E0DF91CF911B
:100520001F910F91FF90EF90DF90CF900895862F4D
:10053000642F0C949807CF93DF9370E0FB01E25592
:10054000FF4F8491FB01E656FF4FD491FB01EA5720
:10055000FF4FC491CC2391F081110E946F07EC2FC3
:10056000F0E0EE0FFF1FE859FF4FA591B491EC9119
:10057000ED2381E090E021F480E002C080E090E093
:10058000DF91CF910895862F642F0C94C7071F9297
:100590000F920FB60F9211242F933F934F935F93B7
:1005A0006F937F938F939F93AF93BF93EF93FF933B
:1005B00086E592E00E94FD00FF91EF91BF91AF911F
:1005C0009F918F917F916F915F914F913F912F916B
:1005D0000F900FBE0F901F9018951F920F920FB69D
:1005E0000F9211242F938F939F93EF93FF93E0919A
:1005F0006602F09167028081E0916C02F0916D02D9
:1006000082FD12C0908180916F028F5F8F73209165
:100610007002821751F0E0916F02F0E0EA5AFD4F4C
:10062000958F80936F0201C08081FF91EF919F9120
:100630008F912F910F900FBE0F901F9018951092D1
:100640004C0281E080932B021092260261E082E14D
:100650000E94980761E083E10E949807E9EBF0E0CF
:1006600080818E7F808380818D7F808388E48093EA
:10067000B80085E48093BC000895CF93DF9391E0A8
:100680009093AC018823B9F0C091B800D091BA0022
:100690008091BC008A7B8093BC0060E082E10E9474
:1006A000980760E083E10E9498070E941F03D0939F
:1006B000BA00C093B800DF91CF91089585ED809383
:1006C000BC0080914E0290914F02A0915002B091D7
:1006D00051020796A11DB11D23E0B695A7959795E8
:1006E00087952A95D1F72091BC0024FF1CC040912A
:1006F0004E0250914F026091500270915102452B71
:10070000462B472B81F30097A105B10541F025E366
:100710002A95F1F700000197A109B109E4CF809172
:100720004D020C943D0310924C0208951F920F92BB
:100730000FB60F9211242F933F934F935F936F93B4
:100740007F938F939F93AF93BF93EF93FF9380918A
:10075000B900887F803609F49CC068F5883209F4B6
:100760005BC090F4803109F454C038F4882309F454
:10077000F6C0883009F44DC0F6C0883109F44CC089
:10078000803209F45DC0EFC0803409F468C048F4D9
:10079000803309F455C0883309F0E5C080932A02FC
:1007A000D8C0803509F44FC0883509F45DC088345D
:1007B00009F0D9C0D6C0883909F4C7C0A8F4883771
:1007C00009F467C038F4883609F463C0803709F447
:1007D00060C0C9C0883809F4B8C0803909F45FC066
:1007E000803809F0C0C05BC0803B09F486C038F493
:1007F000803A09F466C0883A09F47FC0B4C0803CEE
:1008000009F4A7C0883C09F4A4C0883B09F48AC055
:10081000AAC08091270210C09091290280912802DD
:10082000981770F5E091290281E08E0F80932902DC
:10083000F0E0EA5FFD4F80818093BB0085EC86C0CD
:1008400080932A028EC0E091290281E08E0F80936E
:1008500029028091BB00F0E0EA5FFD4F8083909118
:100860002902809128026EC0E091290281E08E0F5A
:10087000809329028091BB00F0E0EA5FFD4F808306
:1008800080912B0281116DC081E08093260284EA61
:1008900061C083E080934C021092EF01CFCF809132
:1008A000EF01803208F051C0E091EF0181E08E0F3E
:1008B0008093EF018091BB00F0E0E153FE4F808315
:1008C000BDCF85EC8093BC0010924C028091EF016B
:1008D000803230F4E091EF01F0E0E153FE4F1082FE
:1008E0006091EF0170E0E091F201F091F3018FEC83
:1008F00091E009951092EF0136C084E080934C029C
:100900001092CE011092CD01E091F401F091F50129
:1009100009958091CD01811105C081E08093CD01C1
:100920001092AD01E091CE0181E08E0F8093CE0157
:10093000F0E0E355FE4F80818093BB009091CE01A3
:100940008091CD01981708F479CF85E88093BC0099
:100950000AC085EC8093BC0010924C0204C0109237
:100960002A020E945E03FF91EF91BF91AF919F9188
:100970008F917F916F915F914F913F912F910F9048
:100980000FBE0F901F9018958F929F92AF92BF92BB
:10099000CF92DF92EF92FF920F931F93CF93DF934B
:1009A0001091F601113208F0C2C0062FD091F0016B
:1009B0000E9403086B017C01C0914C02CC2311F111
:1009C00080914E0290914F02A0915002B09151023D
:1009D000892B8A2B8B2B81F30E94030880904E0277
:1009E00090904F02A0905002B0905102DC01CB01D8
:1009F0008C199D09AE09BF0988169906AA06BB067F
:100A0000D8F681C082E080934C0200932B028FEFD6
:100A100080932A021092290210932802ACE8B1E0D8
:100A2000E6E0F2E080E0181721F09D9191938F5F4E
:100A3000FACF10922702909127028D2F880F892BD1
:100A40008093270280912602813089F51092260238
:100A50000E9403086B017C01809127028093BB00F8
:100A600080914E0290914F02A0915002B09151029C
:100A7000892B8A2B8B2BA9F00E94030800914E0230
:100A800010914F022091500230915102DC01CB01B4
:100A90008C199D09AE09BF09081719072A073B07DA
:100AA00090F18091BC0083FDD7CF85EC01C085EE2D
:100AB0008093BC000E9403086B017C0180914C0272
:100AC000823039F580914E0290914F02A0915002F0
:100AD000B0915102892B8A2B8B2B81F30E94030842
:100AE00000914E0210914F0220915002309151021C
:100AF000DC01CB018C199D09AE09BF090817190744
:100B00002A073B07D8F680914D020E943D03C5E0BD
:100B100013C080912A028F3F79F080912A0280329F
:100B200041F080912A02803331F0C4E005C0C1E079
:100B300003C0C2E001C0C3E01092F7011092F601B9
:100B40001092F1018C2FDF91CF911F910F91FF90A7
:100B5000EF90DF90CF90BF90AF909F908F900895CF
:100B6000CF92DF92EF92FF920F931F93CF93DF9379
:100B7000EC0181E090E002C0880F991F6A95E2F7CE
:100B80008E0104581F4F442349F0D8012D913C9108
:100B90001197822B932B8D939C9309C080959095F0
:100BA000F801208131818223932391838083D801AE
:100BB000CC901196DC90FE01E658FF4F80817E01BB
:100BC000BEE6EB0EF11C91E09093F1018093F001F1
:100BD0001092F7011092F601D701ED91FC9101906E
:100BE000F081E02D6C2DC7010995C558DF4F888134
:100BF000823048F0D701ED91FC910190F081E02D19
:100C00006D2DC701099561E0C7010E94C404F80178
:100C1000C082D182DF91CF911F910F91FF90EF9011
:100C2000DF90CF900895FC01248131E03093F101F1
:100C30002093F0011092F7011092F6018385682B42
:100C400083EF92E00E941B0261E083EF92E00C943C
:100C5000C4040F931F93CF938C01C62F0E941306D9
:100C60006C2F6460C8010E9413066C2F6B7FC80153
:100C70000E94130683EC90E00197F1F7CF911F914A
:100C80000F9108950F931F93CF93DF938C01C62F7D
:100C9000D42F607F642B0E94290680E1C89FB00199
:100CA00011246D2BC801DF91CF911F910F910C94EE
:100CB000290641E00E94420681E090E008951F92DB
:100CC0000F920FB60F9211240F931F932F933F9300
:100CD0004F935F936F937F938F939F93AF93BF9344
:100CE0004091840050918500809101029091020210
:100CF000B09B13C021E026BB9C012F5F3F4F4115E5
:100D00000AEF500730F4C901309302022093010228
:100D100004C030930202209301022091030230911B
:100D200004022F5F3F4F6091FA017091FB0126177B
:100D3000370778F11092040210920302A0E0B0E0AD
:100D4000DC0199278827840F951FA11DB11D4091B3
:100D5000FD015091FE016091FF01709100028C0134
:100D60009D01041B150B260B370B00938801109374
:100D7000890120938A0130938B018093FD01909328
:100D8000FE01A093FF01B093000281E08093FC017B
:100D900004C03093040220930302BF91AF919F914E
:100DA0008F917F916F915F914F913F912F911F9103
:100DB0000F910F900FBE0F901F90189526E0829F05
:100DC000C0011124FC01E150FD4F70A3678F81E049
:100DD00081A3E0916B03F0916C03309719F080913F
:100DE0001B030994089540E061E08DE793E00E94C1
:100DF00042068BE39FE10197F1F70895CF92DF92CE
:100E0000EF92FF920F931F9396E0899FF0011124B8
:100E1000E150FD4F11A2278D30A12130310539F16C
:100E200058F02230310509F447C02330310509F06C
:100E30004FC060E070E044C0662309F449C061E03F
:100E400070E00E94DE062FB7F894809152029091D4
:100E50005302A0915402B09155022FBF80935703C3
:100E600090935803A0935903B0935A0331C09FB78E
:100E7000F894C0905202D0905302E0905402F09047
:100E800055029FBF009157031091580320915903B9
:100E900030915A03C01AD10AE20AF30A0091690399
:100EA00010916A0320E030E00C151D052E053F056A
:100EB00018F462E070E004C061110AC063E070E001
:100EC0001F910F91FF90EF90DF90CF900C94DE0672
:100ED0001F910F91FF90EF90DF90CF900895833096
:100EE00081F028F4813099F08230A1F008958730A4
:100EF000A9F08830B9F08430D1F4809180008F7DE2
:100F000003C0809180008F7780938000089584B51E
:100F10008F7702C084B58F7D84BD08958091B00025
:100F20008F7703C08091B0008F7D8093B0000895CB
:100F30001F93CF93DF93282F30E0F901E255FF4F45
:100F40008491F901E656FF4FD491F901EA57FF4F1A
:100F5000C491CC23C1F0162F81110E946F07EC2F92
:100F6000F0E0EE0FFF1FE458FF4FA591B4919FB73B
:100F7000F894111104C08C91D095D82302C0EC9143
:100F8000DE2BDC939FBFDF91CF911F910895CF930C
:100F9000DF9390E0FC01E656FF4F2491FC01EA57F5
:100FA000FF4F8491882361F190E0880F991FFC0125
:100FB000EE58FF4FC591D491FC01E458FF4FA59125
:100FC000B491611109C09FB7F8948881209582235C
:100FD0008883EC912E230BC0623061F49FB7F894A4
:100FE0008881322F309583238883EC912E2B2C938C
:100FF0009FBF06C08FB7F894E8812E2B28838FBF40
:10100000DF91CF9108953FB7F89480918A03909132
:101010008B03A0918C03B0918D0326B5A89B05C0CE
:101020002F3F19F00196A11DB11D3FBFBA2FA92F67
:10103000982F8827820F911DA11DB11DBC01CD01E4
:1010400042E0660F771F881F991F4A95D1F70895D0
:101050008F929F92AF92BF92CF92DF92EF92FF92C8
:101060000F931F93CF93DF93F82ED62F613208F0A2
:10107000BBC00E9403084B015C01C0914C02CC2311
:1010800031F180914E0290914F02A0915002B091A7
:101090005102892B8A2B8B2B81F30E94030800912C
:1010A0004E0210914F022091500230915102DC010A
:1010B000CB0188199909AA09BB09081719072A073A
:1010C0003B07D8F680914D020E943D038DC081E020
:1010D00080934C0280932B029FEF90932A021092F0
:1010E00029029D0F90932802809327029091270256
:1010F0008F2D880F892B80932702809126028130C3
:1011000089F5109226020E9403086B017C018091F0
:1011100027028093BB0080914E0290914F02A091D4
:101120005002B0915102892B8A2B8B2BA9F00E947F
:10113000030880904E0290904F02A0905002B09011
:101140005102DC01CB018C199D09AE09BF0988163B
:101150009906AA06BB0690F18091BC0083FDD7CF0B
:1011600085EC01C085EE8093BC000E9403086B01F2
:101170007C0180914C02813031F580914E0290913A
:101180004F02A0915002B0915102892B8A2B8B2BD8
:1011900081F30E94030880904E0290904F02A0902D
:1011A0005002B0905102DC01CB018C199D09AE09AF
:1011B000BF0988169906AA06BB06D8F680914D028B
:1011C0000E943D0312C0809129028D1710F4D09126
:1011D0002902E6E0F2E0ACE2B2E0C0E0CD1729F08F
:1011E00081918D93CF5FFACFC0E08C2FDF91CF91AB
:1011F0001F910F91FF90EF90DF90CF90BF90AF9035
:101200009F908F9008958F929F92AF92BF92CF92AE
:10121000DF92EF92FF926B017C010E9403084B0169
:101220005C01C114D104E104F104F1F00E9403084F
:10123000DC01CB0188199909AA09BB09883E9340B2
:10124000A105B10570F321E0C21AD108E108F10847
:1012500088EE880E83E0981EA11CB11CC114D10435
:10126000E104F10419F7DDCFFF90EF90DF90CF900C
:10127000BF90AF909F908F9008951F920F920FB6DE
:101280000F9211242F933F938F939F93AF93BF930C
:101290008091520290915302A0915402B091550254
:1012A0003091890323E0230F2D3720F40196A11DEF
:1012B000B11D05C026E8230F0296A11DB11D209384
:1012C00089038093520290935302A0935402B093E7
:1012D000550280918A0390918B03A0918C03B09169
:1012E0008D030196A11DB11D80938A0390938B03FA
:1012F000A0938C03B0938D03BF91AF919F918F9179
:101300003F912F910F900FBE0F901F9018957894DA
:1013100084B5826084BD84B5816084BD85B58260FA
:1013200085BD85B5816085BD80916E0081608093AB
:101330006E00109281008091810082608093810014
:101340008091810081608093810080918000816024
:10135000809380008091B10084608093B10080917F
:10136000B00081608093B00080917A0084608093A7
:101370007A0080917A00826080937A0080917A006E
:10138000816080937A0080917A00806880937A00EF
:101390001092C100E0916602F091670282E08083C2
:1013A000E0916602F09167021082E0916202F09192
:1013B00063021082E0916402F091650280E1808313
:1013C00010926E02E0916A02F0916B0286E08083D7
:1013D000E0916802F0916902808180618083E091F0
:1013E0006802F0916902808188608083E0916802E0
:1013F000F0916902808180688083E0916802F091B9
:10140000690280818F7D80831092F9011092F8012A
:101410001092F7011092F6010E941F0380EC91E0F8
:101420009093F5018093F40181EC91E09093F301A6
:101430008093F2011092820380918603823018F02B
:1014400098E09093820390918703992339F081303B
:1014500029F48091820384608093820362E370E0C8
:1014600080E090E00E940309609188038DE793E09B
:101470000E94130668EE73E080E090E00E9403098A
:1014800060E38DE793E00E942906CBE4D6E4CE0129
:101490000197F1F760E38DE793E00E942906219719
:1014A000F1F760E38DE793E00E94290683E592E07F
:1014B0000197F1F760E28DE793E00E9429066091C1
:1014C0008203606240E08DE793E00E94420684E080
:1014D0008093830340E06CE08DE793E00E94420636
:1014E0000E94F30682E08093840340E066E08DE78B
:1014F00093E00E94420640E062E08DE793E00E94A4
:1015000042068BE39FE10197F1F71092F7011092E9
:10151000F6010E941F0360917A03613208F060E2D5
:10152000809179030E9428088093F8018DE693E06A
:101530000E94D20190937C0380937B0380917A0375
:10154000823088F08DE693E00E94D20120E030E006
:10155000382F80917B0390917C03282B392B30937B
:101560007C0320937B0388E08093880360E08DE711
:1015700093E00E94130661E087E00E94C70761E0E4
:101580008AE00E94C70761E08BE00E94C70761E024
:101590008CE00E94C70761E088E00E94C70761E015
:1015A00087E00E94980761E08AE00E94980761E066
:1015B0008BE00E94980761E08CE00E94980761E050
:1015C00088E00E94980740E068E48DE793E00E947D
:1015D0004206C8E0D1E000E111E069918DE793E0B7
:1015E0000E9459060C171D07C1F740E060E58DE722
:1015F00093E00E944206C0E0D1E008E011E069916A
:101600008DE793E00E9459060C171D07C1F7109251
:101610000402109203021092020210920102109230
:10162000FD011092FE011092FF0110920002109233
:10163000FC018091800080918100109281001092C5
:101640008000109285001092840081E086BB109289
:101650006F008091B0008091B1001092B10082E0E3
:101660008093B0009CE79093B30097E090930502BD
:1016700087BB1092B2002DE730E03093FB0120933E
:10168000FA012FB7F89483BD309105023093B10071
:10169000809370008BE08150F1F7909381002FBF11
:1016A000412C512C320143944BE3842E43E0942E81
:1016B000CC24CA94DC2C8FB7F894409152025091FC
:1016C000530260915402709155028FBF80915B0369
:1016D00090915C03A0915D03B0915E03481B590B90
:1016E0006A0B7B0B8091670390916803A0E0B0E0E8
:1016F00084179507A607B70708F0DFC0312C809143
:101700006603381608F051C0032D10E0E091630322
:10171000F0916403E00FF11F40E060818FEF92E0F1
:101720000E94B005D301C201032C04C0880F991F89
:10173000AA1FBB1F0A94D2F75C017C01E094F094CD
:10174000212C80916503281608F5C22DD0E0E09188
:101750006103F0916203EC0FFD1F60818FEF92E057
:101760000E944F022496CC0FDD1FC150DD4F892B04
:1017700029F4888199818A299B2904C088819981CB
:101780008E219F21998388832394DBCF80916303EB
:1017900090916403FC01E00FF11F41E060818FEF45
:1017A00092E00E94B0053394AACFCFEFD2E0FE01C1
:1017B000878D90A1892B21F4148ED68EC58E11A20F
:1017C000369653E0EB33F50799F7F12C80916503DA
:1017D000F81658F5E12C0F2D10E0000F111F095FCE
:1017E0001C4F20916603E216F0F4F801408151810C
:1017F0000E2C02C0569547950A94E2F7642F61704B
:10180000F29E900111242E0D311DEFEFF2E080E0E9
:10181000A58DB68D2A173B0709F46FC08F5F3696EA
:101820008A30B1F74DC0F394D1CF80E099A19111E6
:1018300081E026968C169D06C9F79FB7F8944091D3
:1018400052025091530260915402709155029FBF11
:1018500040935B0350935C0360935D0370935E035E
:10186000882359F180912003882339F180911E0348
:1018700090911F03019709F5C0911B03CC23E9F058
:1018800041E06C2F8DE793E00E944206C13489F459
:101890000E94F30640E061E88DE793E00E94420673
:1018A0004EE050E064E771E08DE793E00E948C0029
:1018B00004C0C33211F40E94F3060E948E01FBCED5
:1018C00040FF1DC0EFEFF2E080E090E0448D411159
:1018D00018C0E0915F03F0916003E20FF31F4081B5
:1018E00056E0589FF001599FF00D1124E150FD4F33
:1018F000448F368F258F10A2178E0E94FE06E39428
:1019000070CF019636968A30910501F7F8CF109284
:1019100059021092580288EE93E0A0E0B0E0809364
:101920005A0290935B02A0935C02B0935D022CE29A
:1019300031E0309357022093560225EC30E030938B
:1019400063022093620224EC30E03093650220931E
:10195000640220EC30E0309367022093660221ECB1
:1019600030E0309369022093680222EC30E030933B
:101970006B0220936A0226EC30E030936D022093D4
:101980006C0210926F02109270021092710210920B
:1019900072021092F6021092F5028093F702909371
:1019A000F802A093F902B093FA028EE391E09093CB
:1019B000F4028093F3021092800310927F038CE66E
:1019C00091E090937E0380937D038FE38093810366
:1019D00080E18093850382E08093860310928703E1
:1019E00088E08093880310920103109205031092FF
:1019F000040310920603EFEFF2E08BE393E0148E02
:101A000010A2178E11A236968E179F07C1F784E198
:101A100091E0909362038093610380E191E0909361
:101A200064038093630384E080936503809366037B
:101A300088E191E09093600380935F038AE090E0F7
:101A4000909368038093670384EF91E090936A0317
:101A50008093690310926C0310926B0310925B03E6
:101A600010925C0310925D0310925E03109270035B
:101A700010926F0388EE93E0A0E0B0E080937103D2
:101A800090937203A0937303B093740380E591E085
:101A9000909300038093FF028AE591E090936E0398
:101AA00080936D0380E28093790381E080937A03D1
:101AB0000895EE0FFF1F0590F491E02D0994F8941E
:021AC000FFCF56
:101AC20000000E1010110E040E000E010F110F0077
:101AD2000405060700010203313233413435364230
:101AE200373839432A302344000000001F018C009C
:101AF200B6006C01E700C500D900000000001B021F
:101B0200EE014C02C201E601D201C3010000000055
:101B12004B02B0054F0292FF00001B02EE014C0285
:101B2200C201E601D201C3010000000059068C0087
:101B32004C024A024D656E75205072696E6369707F
:041B4200616C0000D2
:00000001FF
