:100000000C9462000C948A000C948A000C948A0070
:100010000C948A000C948A000C948A000C9461065B
:100020000C948A000C948A000C948A000C948A0028
:100030000C948A000C948A000C948A000C948A0018
:100040000C9465090C948A000C940D030C94E7023F
:100050000C948A000C948A000C948A000C948A00F8
:100060000C9498030C948A000000000023002600E2
:10007000290000000000240027002A0000000000E2
:10008000250028002B0004040404040404040202D4
:100090000202020203030303030301020408102007
:1000A0004080010204081020010204081020000012
:1000B0000008000201000003040700000000000027
:1000C0000000B00C11241FBECFEFD8E0DEBFCDBFC3
:1000D00011E0A0E0B1E0EEE1FBE102C005900D927D
:1000E000AC38B107D9F723E0ACE8B1E001C01D920C
:1000F000A239B207E1F710E0C2E6D0E004C02197D0
:10010000FE010E94820DC136D107C9F70E94AF09D6
:100110000C948D0D0C940000089508950895CF92CD
:10012000DF92EF92FF920F931F93CF93DF936C01B7
:100130007A018B01C0E0D0E0CE15DF0581F0D80157
:100140006D918D01D601ED91FC910190F081E02D32
:10015000C6010995892B11F02196EECF7E01C701CA
:10016000DF91CF911F910F91FF90EF90DF90CF9093
:100170000895FC01538D448D252F30E0842F90E0AD
:10018000821B930B541710F0CF9608950197089592
:10019000FC01918D828D981761F0828DDF01A80F8F
:1001A000B11D5D968C91928D9F5F9F73928F90E0B1
:1001B00008958FEF9FEF0895FC01918D828D981720
:1001C00031F0828DE80FF11D858D90E008958FEF5D
:1001D0009FEF0895FC01918D228D892F90E0805C26
:1001E0009F4F821B91098F73992708958AE592E0AA
:1001F0000E94EA0021E0892B09F420E0822F089573
:10020000FC01848DDF01A80FB11DA35ABF4F2C91B3
:10021000848D90E001968F739927848FA689B78982
:100220002C93A089B1898C91837080648C93938D79
:10023000848D981306C00288F389E02D80818F7D1C
:1002400080830895EF92FF920F931F93CF93DF93D4
:10025000EC0181E0888F9B8D8C8D981305C0E88917
:10026000F989808185FD26C0F62E0B8D10E00F5F89
:100270001F4F0F731127E02E8C8DE8120CC00FB6A4
:1002800007FCFACFE889F989808185FFF5CFCE0197
:100290000E940001F1CF8B8DFE01E80FF11DE35AA2
:1002A000FF4FF0829FB7F8940B8FEA89FB8980811A
:1002B00080620AC09FB7F894EE89FF896083E8895D
:1002C000F98980818370806480839FBF81E090E0A2
:1002D000DF91CF911F910F91FF90EF900895CF93F1
:1002E000DF93EC01888D8823C9F0EA89FB8980813E
:1002F00085FD05C0A889B9898C9186FD0FC00FB610
:1003000007FCF5CF808185FFF2CFA889B9898C9150
:1003100085FFEDCFCE010E940001E7CFDF91CF91A5
:10032000089580E090E0892B29F00E94F600811169
:100330000C94000008954091D101262F30E0240F45
:10034000311D21323105DCF4209150022430C9F4F2
:10035000FC0180E090E0861758F43091D1012191A2
:10036000DC01AF54BE4FA30FB11D2C930196F3CF08
:100370008091D101680F6093D10180E0089581E000
:10038000089582E008950895E091FD018091FC01B7
:10039000E81730F4F0E0E05DFD4F808190E00895D3
:1003A0008FEF9FEF08959091FD018091FC019817C8
:1003B00050F4E92FF0E0E05DFD4F208130E09F5FD9
:1003C0009093FD0102C02FEF3FEFC9010895809186
:1003D000FC0190E02091FD01821B91090895CF92CC
:1003E000DF92EF92FF920F931F93CF93DF937C01E5
:1003F000CB018A012091F501222389F0EB016B01E9
:10040000C40ED51ECC15DD0569F06991D701ED91BB
:10041000FC910190F081E02DC7010995F3CF642F85
:100420000E949B01C801DF91CF911F910F91FF9016
:10043000EF90DF90CF900895CF93DF931F92CDB7C9
:10044000DEB769832091F5012223D1F02091FA01D2
:10045000203240F021E030E0FC013383228380E051
:1004600090E015C08091FB01E82FF0E0E057FE4FCF
:10047000998190838F5F8093FB018093FA0105C07F
:1004800061E0CE0101960E949B0181E090E00F9017
:10049000DF91CF910895089580E090E00895109243
:1004A000500281E080932F0210922A0261E082E1E3
:1004B0000E94C00761E083E10E94C007E9EBF0E021
:1004C00080818E7F808380818D7F808388E480938C
:1004D000B80085E48093BC000895862F642F0C94A7
:1004E000C007862F642F0C94EF07CF92DF92EF9214
:1004F000FF920F931F93CF93DF9301E010E002C0B0
:10050000000F111F6A95E2F77C012EE6E20EF11C46
:100510006C01EBE7CE0ED11CF6016081613208F070
:1005200060E2FC01E658FF4F80810E945008109263
:10053000FD018093FC01C7010E94D301EC01F6018B
:100540008081823040F0C7010E94D30120E030E07A
:10055000382FC22BD32BC023D12381E090E0C017CA
:10056000D10711F080E090E0DF91CF911F910F91C2
:10057000FF90EF90DF90CF9008950E94880DCF9369
:10058000DF9370E0FB01E255FF4F8491FB01E656DB
:10059000FF4FD491FB01EA57FF4FC491CC2391F058
:1005A00081110E949707EC2FF0E0EE0FFF1FE85932
:1005B000FF4FA591B491EC91ED2381E090E021F4FF
:1005C00080E002C080E090E0DF91CF9108951F921B
:1005D0000F920FB60F9211242F933F934F935F9377
:1005E0006F937F938F939F93AF93BF93EF93FF93FB
:1005F0008AE592E00E940001FF91EF91BF91AF91D7
:100600009F918F917F916F915F914F913F912F912A
:100610000F900FBE0F901F9018951F920F920FB65C
:100620000F9211242F938F939F93EF93FF93E09159
:100630006A02F0916B028081E0917002F091710288
:1006400082FD12C09081809173028F5F8F73209121
:100650007402821751F0E0917302F0E0E65AFD4F08
:10066000958F8093730201C08081FF91EF919F91DC
:100670008F912F910F900FBE0F901F901895CF93D1
:10068000DF9391E09093B0018823B9F0C091B80056
:10069000D091BA008091BC008A7B8093BC0060E05E
:1006A00082E10E94C00760E083E10E94C0070E94CF
:1006B0004F02D093BA00C093B800DF91CF91089554
:1006C00085ED8093BC008091520290915302A091DD
:1006D0005402B09155020796A11DB11D23E0B695B5
:1006E000A795979587952A95D1F72091BC0024FF6F
:1006F0001CC040915202509153026091540270917B
:100700005502452B462B472B81F30097A105B105D8
:1007100041F025E32A95F1F700000197A109B109FD
:10072000E4CF809151020C943F031092500208953F
:100730001F920F920FB60F9211242F933F934F9356
:100740005F936F937F938F939F93AF93BF93EF9339
:10075000FF938091B900887F803609F49CC068F5CA
:10076000883209F45BC090F4803109F454C038F445
:10077000882309F4F6C0883009F44DC0F6C08831EA
:1007800009F44CC0803209F45DC0EFC0803409F434
:1007900068C048F4803309F455C0883309F0E5C0D7
:1007A00080932E02D8C0803509F44FC0883509F4F3
:1007B0005DC0883409F0D9C0D6C0883909F4C7C0F3
:1007C000A8F4883709F467C038F4883609F463C0A0
:1007D000803709F460C0C9C0883809F4B8C08039CE
:1007E00009F45FC0803809F0C0C05BC0803B09F4E9
:1007F00086C038F4803A09F466C0883A09F47FC0AC
:10080000B4C0803C09F4A7C0883C09F4A4C0883B6C
:1008100009F48AC0AAC080912B0210C090912D02C9
:1008200080912C02981770F5E0912D0281E08E0FD7
:1008300080932D02F0E0E65FFD4F80818093BB0046
:1008400085EC86C080932E028EC0E0912D0281E05F
:100850008E0F80932D028091BB00F0E0E65FFD4F8C
:10086000808390912D0280912C026EC0E0912D0228
:1008700081E08E0F80932D028091BB00F0E0E65F57
:10088000FD4F808380912F0281116DC081E08093A4
:100890002A0284EA61C083E0809350021092F3013F
:1008A000CFCF8091F301803208F051C0E091F30185
:1008B00081E08E0F8093F3018091BB00F0E0ED5258
:1008C000FE4F8083BDCF85EC8093BC001092500218
:1008D0008091F301803230F4E091F301F0E0ED52C9
:1008E000FE4F10826091F30170E0E091F601F0910B
:1008F000F70183ED91E009951092F30136C084E091
:10090000809350021092D2011092D101E091F8012F
:10091000F091F90109958091D101811105C081E023
:100920008093D1011092B101E091D20181E08E0F4C
:100930008093D201F0E0EF54FE4F80818093BB00A2
:100940009091D2018091D101981708F479CF85E870
:100950008093BC000AC085EC8093BC0010925002CA
:1009600004C010922E020E946003FF91EF91BF918C
:10097000AF919F918F917F916F915F914F913F9137
:100980002F910F900FBE0F901F9018958F929F92EE
:10099000AF92BF92CF92DF92EF92FF920F931F938D
:1009A000CF93DF931091FA01113208F0C2C0062FE5
:1009B000D091F4010E942B086B017C01C091500280
:1009C000CC2311F18091520290915302A0915402D4
:1009D000B0915502892B8A2B8B2B81F30E942B0817
:1009E0008090520290905302A0905402B090550211
:1009F000DC01CB018C199D09AE09BF098816990647
:100A0000AA06BB06D8F681C082E08093500200930C
:100A10002F028FEF80932E0210922D0210932C0242
:100A2000A0E9B1E0EAE0F2E080E0181721F09D9142
:100A300091938F5FFACF10922B0290912B028D2F02
:100A4000880F892B80932B0280912A02813089F5AF
:100A500010922A020E942B086B017C0180912B02CC
:100A60008093BB008091520290915302A091540256
:100A7000B0915502892B8A2B8B2BA9F00E942B0851
:100A8000009152021091530220915402309155026C
:100A9000DC01CB018C199D09AE09BF0908171907A4
:100AA0002A073B0790F18091BC0083FDD7CF85ECEE
:100AB00001C085EE8093BC000E942B086B017C0175
:100AC00080915002823039F5809152029091530208
:100AD000A0915402B0915502892B8A2B8B2B81F364
:100AE0000E942B080091520210915302209154024F
:100AF00030915502DC01CB018C199D09AE09BF096B
:100B0000081719072A073B07D8F6809151020E945F
:100B10003F03C5E013C080912E028F3F79F0809192
:100B20002E02803241F080912E02803331F0C4E0F9
:100B300005C0C1E003C0C2E001C0C3E01092FB01E8
:100B40001092FA011092F5018C2FDF91CF911F9135
:100B50000F91FF90EF90DF90CF90BF90AF909F905C
:100B60008F900895CF92DF92EF92FF920F931F9391
:100B7000CF93DF93EC0181E090E002C0880F991FD2
:100B80006A95E2F78E0104581F4F442349F0D801BB
:100B90002D913C911197822B932B8D939C9309C09F
:100BA00080959095F8012081318182239323918350
:100BB0008083D801CC901196DC90FE01E658FF4F5F
:100BC00080817E01BEE6EB0EF11C91E09093F50171
:100BD0008093F4011092FB011092FA01D701ED917C
:100BE000FC910190F081E02D6C2DC7010995C5584D
:100BF000DF4F8881823048F0D701ED91FC91019060
:100C0000F081E02D6D2DC701099561E0C7010E94BB
:100C1000C604F801C082D182DF91CF911F910F915C
:100C2000FF90EF90DF90CF900895FC01248131E098
:100C30003093F5012093F4011092FB011092FA0118
:100C40008385682B87EF92E00E941C0261E087EFAA
:100C500092E00C94C6040F931F93CF938C01C62F80
:100C60000E9415066C2F6460C8010E9415066C2F47
:100C70006B7FC8010E94150683EC90E00197F1F7A5
:100C8000CF911F910F9108950F931F93CF93DF93EF
:100C90008C01C62FD42F607F642B0E942B0680E12D
:100CA000C89FB00111246D2BC801DF91CF911F9116
:100CB0000F910C942B0641E00E94440681E090E0E5
:100CC00008951F920F920FB60F9211240F931F9346
:100CD0002F933F934F935F936F937F938F939F9344
:100CE000AF93BF932091840030918500B09B0BC0DF
:100CF00081E086BB80910602909107020196909355
:100D000007028093060280910802909109020196E1
:100D10004091FF01509100028417950798F11092BD
:100D20000902109208028091060290910702A0E049
:100D3000B0E0DC0199278827820F931FA11DB11D08
:100D400040910202509103026091040270910502E9
:100D50008C019D01041B150B260B370B00938C0196
:100D600010938D0120938E0130938F0180930202A6
:100D700090930302A0930402B093050281E0809354
:100D8000010204C09093090280930802BF91AF91C1
:100D90009F918F917F916F915F914F913F912F9193
:100DA0001F910F910F900FBE0F901F90189526E086
:100DB000829FC0011124FC01ED5FFC4F70A3678F7F
:100DC00081E081A3E0916F03F0917003309719F0F7
:100DD00080911F030994089540E061E081E893E069
:100DE0000E9444068BE39FE10197F1F70895CF93AA
:100DF000DF93CDB7DEB728970FB6F894DEBF0FBEEE
:100E0000CDBF98E0E8E2F1E0DE01119601900D928D
:100E10009A95E1F790918A03961710F46FEF690F96
:100E2000FE013196E60FF11DE60FF11D6081680F9E
:100E3000606840E081E893E028960FB6F894DEBF42
:100E40000FBECDBFDF91CF910C944406CF92DF92BD
:100E5000EF92FF920F931F9396E0899FF001112468
:100E6000ED5FFC4F11A2278D30A12130310539F102
:100E700058F02230310509F447C02330310509F01C
:100E80004FC060E070E044C0662309F449C061E0EF
:100E900070E00E94D7062FB7F89480915602909187
:100EA0005702A0915802B09159022FBF80935B0363
:100EB00090935C03A0935D03B0935E0331C09FB732
:100EC000F894C0905602D0905702E0905802F090EB
:100ED00059029FBF00915B0310915C0320915D0359
:100EE00030915E03C01AD10AE20AF30A00916D0341
:100EF00010916E0320E030E00C151D052E053F0516
:100F000018F462E070E004C061110AC063E070E0B0
:100F10001F910F91FF90EF90DF90CF900C94D70628
:100F20001F910F91FF90EF90DF90CF900895833045
:100F300081F028F4813099F08230A1F00895873053
:100F4000A9F08830B9F08430D1F4809180008F7D91
:100F500003C0809180008F7780938000089584B5CE
:100F60008F7702C084B58F7D84BD08958091B000D5
:100F70008F7703C08091B0008F7D8093B00008957B
:100F80001F93CF93DF93282F30E0F901E255FF4FF5
:100F90008491F901E656FF4FD491F901EA57FF4FCA
:100FA000C491CC23C1F0162F81110E949707EC2F1A
:100FB000F0E0EE0FFF1FE458FF4FA591B4919FB7EB
:100FC000F894111104C08C91D095D82302C0EC91F3
:100FD000DE2BDC939FBFDF91CF911F910895CF93BC
:100FE000DF9390E0FC01E656FF4F2491FC01EA57A5
:100FF000FF4F8491882361F190E0880F991FFC01D5
:10100000EE58FF4FC591D491FC01E458FF4FA591D4
:10101000B491611109C09FB7F8948881209582230B
:101020008883EC912E230BC0623061F49FB7F89453
:101030008881322F309583238883EC912E2B2C933B
:101040009FBF06C08FB7F894E8812E2B28838FBFEF
:10105000DF91CF9108953FB7F89480918E039091DE
:101060008F03A0919003B091910326B5A89B05C072
:101070002F3F19F00196A11DB11D3FBFBA2FA92F17
:10108000982F8827820F911DA11DB11DBC01CD0194
:1010900042E0660F771F881F991F4A95D1F7089580
:1010A0008F929F92AF92BF92CF92DF92EF92FF9278
:1010B0000F931F93CF93DF93F82ED62F613208F052
:1010C000BBC00E942B084B015C01C0915002CC2395
:1010D00031F18091520290915302A0915402B0914B
:1010E0005502892B8A2B8B2B81F30E942B080091B0
:1010F0005202109153022091540230915502DC01AA
:10110000CB0188199909AA09BB09081719072A07E9
:101110003B07D8F6809151020E943F038DC081E0C9
:101120008093500280932F029FEF90932E02109293
:101130002D029D0F90932C0280932B0290912B02F5
:101140008F2D880F892B80932B0280912A0281306A
:1011500089F510922A020E942B086B017C01809174
:101160002B028093BB008091520290915302A09178
:101170005402B0915502892B8A2B8B2BA9F00E9427
:101180002B088090520290905302A0905402B0908D
:101190005502DC01CB018C199D09AE09BF098816E7
:1011A0009906AA06BB0690F18091BC0083FDD7CFBB
:1011B00085EC01C085EE8093BC000E942B086B017A
:1011C0007C0180915002813031F5809152029091E2
:1011D0005302A0915402B0915502892B8A2B8B2B7C
:1011E00081F30E942B088090520290905302A090AD
:1011F0005402B0905502DC01CB018C199D09AE0957
:10120000BF0988169906AA06BB06D8F68091510236
:101210000E943F0312C080912D028D1710F4D091CF
:101220002D02EAE0F2E0A0E3B2E0C0E0CD1729F041
:1012300081918D93CF5FFACFC0E08C2FDF91CF915A
:101240001F910F91FF90EF90DF90CF90BF90AF90E4
:101250009F908F9008958F929F92AF92BF92CF925E
:10126000DF92EF92FF926B017C010E942B084B01F1
:101270005C01C114D104E104F104F1F00E942B08D7
:10128000DC01CB0188199909AA09BB09883E934062
:10129000A105B10570F321E0C21AD108E108F108F7
:1012A00088EE880E83E0981EA11CB11CC114D104E5
:1012B000E104F10419F7DDCFFF90EF90DF90CF90BC
:1012C000BF90AF909F908F9008951F920F920FB68E
:1012D0000F9211242F933F938F939F93AF93BF93BC
:1012E0008091560290915702A0915802B0915902F4
:1012F00030918D0323E0230F2D3720F40196A11D9B
:10130000B11D05C026E8230F0296A11DB11D209333
:101310008D038093560290935702A0935802B09386
:10132000590280918E0390918F03A0919003B09108
:1013300091030196A11DB11D80938E0390938F039D
:10134000A0939003B0939103BF91AF919F918F9120
:101350003F912F910F900FBE0F901F90189578948A
:1013600084B5826084BD84B5816084BD85B58260AA
:1013700085BD85B5816085BD80916E00816080935B
:101380006E001092810080918100826080938100C4
:1013900080918100816080938100809180008160D4
:1013A000809380008091B10084608093B10080912F
:1013B000B00081608093B00080917A008460809357
:1013C0007A0080917A00826080937A0080917A001E
:1013D000816080937A0080917A00806880937A009F
:1013E0001092C100E0916A02F0916B0282E080836A
:1013F000E0916A02F0916B021082E0916602F09136
:1014000067021082E0916802F091690280E18083B6
:1014100010927202E0916E02F0916F0286E080837A
:10142000E0916C02F0916D02808180618083E09197
:101430006C02F0916D02808188608083E0916C0283
:10144000F0916D02808180688083E0916C02F09160
:101450006D0280818F7D80831092FD011092FC01CE
:101460001092FB011092FA010E944F028DE890E069
:101470009093F9018093F8018EE890E09093F70142
:101480008093F6011092860380918A03823018F0CF
:1014900098E09093860390918B03992339F08130E3
:1014A00029F48091860384608093860362E370E070
:1014B00080E090E00E942B0960918C0381E893E02A
:1014C0000E94150668EE73E080E090E00E942B0910
:1014D00060E381E893E00E942B06CBE4D6E4CE01E2
:1014E0000197F1F760E381E893E00E942B062197D2
:1014F000F1F760E381E893E00E942B0683E592E038
:101500000197F1F760E281E893E00E942B06609179
:101510008603606240E081E893E00E94440684E034
:101520008093870340E06CE081E893E00E944406EA
:101530000E94EC0682E08093880340E066E081E848
:1015400093E00E94440640E062E081E893E00E945C
:1015500044068BE39FE10197F1F71092FB01109293
:10156000FA010E944F0260917E03613208F060E24E
:1015700080917D030E9450088093FC0181E793E0F5
:101580000E94D3019093800380937F0380917E0318
:10159000823088F081E793E00E94D30120E030E0C0
:1015A000382F80917F0390918003282B392B309323
:1015B000800320937F0388E080938C0360E081E8C0
:1015C00093E00E94150661E087E00E94EF0761E06A
:1015D0008AE00E94EF0761E08BE00E94EF0761E084
:1015E0008CE00E94EF0761E088E00E94EF0761E075
:1015F00087E00E94C00761E08AE00E94C00761E0C6
:101600008BE00E94C00761E08CE00E94C00761E0AF
:1016100088E00E94C00740E068E481E893E00E940F
:101620004406C8E0D1E000E111E0699181E893E06F
:101630000E945B060C171D07C1F740E060E581E8DA
:1016400093E00E944406C0E0D1E0699181E893E014
:101650000E945B0651E0C830D507B9F71092090225
:1016600010920802109207021092060210920202D3
:1016700010920302109204021092050210920102CD
:1016800080918000809181001092810010928000F2
:10169000109285001092840081E086BB10926F004A
:1016A0008091B0008091B1001092B10082E08093EF
:1016B000B0009CE79093B30097E09093FE0187BB46
:1016C0001092B2002DE730E0309300022093FF012A
:1016D0002FB7F89483BD3091FE013093B100809311
:1016E00070008BE08150F1F7909381002FBF412C67
:1016F000512C320143944FE3842E43E0942ECC24AA
:10170000CA94DC2C8FB7F89440915602509157023E
:1017100060915802709159028FBF80915F03909140
:101720006003A0916103B0916203481B590B6A0BDF
:101730007B0B80916B0390916C03A0E0B0E0841769
:101740009507A607B70708F0E1C0312C80916A031E
:10175000381608F051C0032D10E0E0916703F091B6
:101760006803E00FF11F40E0608183E093E00E9496
:10177000B205D301C201032C04C0880F991FAA1F10
:10178000BB1F0A94D2F75C017C01E094F094212CF9
:1017900080916903281608F5C22DD0E0E091650319
:1017A000F0916603EC0FFD1F608183E093E00E94DF
:1017B00075022496CC0FDD1FCD5FDC4F892B29F4F9
:1017C000888199818A299B2904C0888199818E21E9
:1017D0009F21998388832394DBCF80916703909125
:1017E0006803FC01E00FF11F41E0608183E093E0BA
:1017F0000E94B2053394AACFC3E0D3E0FE01878DE7
:1018000090A1892B21F4148ED68EC58E11A2369606
:1018100083E0EF33F80799F7F12C80916903F8160C
:1018200058F5E12C0F2D10E0000F111F055F1C4F24
:1018300020916A03E216F0F4F801408151810E2CE8
:1018400002C0569547950A94E2F7642F6170F29EA4
:10185000900111242E0D311DE3E0F3E080E0A58D11
:10186000B68D2A173B0709F471C08F5F36968A3010
:10187000B1F74FC0F394D1CF80E099A1911181E0ED
:1018800026968C169D06C9F79FB7F894409156028C
:101890005091570260915802709159029FBF409336
:1018A0005F03509360036093610370936203882326
:1018B00069F180912403882349F18091220390915A
:1018C0002303019719F5C0911F03CC23F9F041E0E0
:1018D0006C2F81E893E00E944406C13499F40E9481
:1018E000EC0660E081E00E94F7064EE050E06CE715
:1018F00071E081E893E00E948F0061E080E00E9447
:10190000F70604C0C33211F40E94EC060E94910154
:10191000F9CE40FF1DC0E3E0F3E080E090E0448DAD
:10192000411118C0E0916303F0916403E20FF31FCB
:10193000408156E0589FF001599FF00D1124ED5F52
:10194000FC4F448F368F258F10A2178E0E942607DA
:10195000E3946ECF019636968A30910501F7F8CF61
:1019600010925D0210925C0288EE93E0A0E0B0E07D
:1019700080935E0290935F02A0936002B093610235
:1019800024E331E030935B0220935A0225EC30E0EF
:10199000309367022093660224EC30E030936902B2
:1019A0002093680220EC30E030936B0220936A02AF
:1019B00021EC30E030936D0220936C0222EC30E099
:1019C00030936F0220936E0226EC30E03093710268
:1019D000209370021092730210927402109275029A
:1019E000109276021092FA021092F9028093FB0292
:1019F0009093FC02A093FD02B093FE0286E491E076
:101A00009093F8028093F70210928403109283035C
:101A100084E791E090938203809381038FE3809326
:101A2000850380E18093890382E080938A0310928A
:101A30008B0388E080938C031092050310920903B6
:101A40001092080310920A03E3E0F3E08FE393E0BF
:101A5000148E10A2178E11A236968E179F07C1F70B
:101A600084E191E0909366038093650380E191E0C7
:101A7000909368038093670384E080936903809365
:101A80006A0388E191E090936403809363038AE0A2
:101A900090E090936C0380936B0384EF91E09093BC
:101AA0006E0380936D031092700310926F03109277
:101AB0005F03109260031092610310926203109210
:101AC00074031092730388EE93E0A0E0B0E080937B
:101AD000750390937603A0937703B093780388E51A
:101AE00091E0909304038093030382E691E0909346
:101AF00072038093710380E280937D0381E0809381
:101B00007E030895EE0FFF1F0590F491E02D0994D8
:0E1B100081E090E0F8940C948D0DF894FFCFD6
:101B1E0000000E1010110E040E000E010F110F001A
:101B2E0004050607000102033132334134353642D3
:101B3E00373839432A302344000040001400540043
:101B4E000000000022018F00B9006F01EA00C800FA
:101B5E00DC00000000001C02EF014C02C301E70193
:101B6E00D301C401000000008C00B205750292FF83
:101B7E0000001C02EF014C02C301E701D301C401B6
:101B8E00000000005B068F004C024B024D656E7527
:0C1B9E00205072696E636970616C000079
:00000001FF
