:100000000C945D000C9485000C9485000C94850084
:100010000C9485000C9485000C9485000C940E03C0
:100020000C9485000C9485000C9485000C9485003C
:100030000C9485000C9485000C9485000C9485002C
:100040000C94F4060C9485000C94BF020C94990255
:100050000C9485000C9485000C9485000C9485000C
:100060000C9467050C948500000000080002010054
:100070000003040700000000000000000000000072
:10008000250028002B0000000000240027002A0083
:10009000040404040404040402020202020203032E
:1000A0000303030301020408102040800102040836
:1000B0001020010204081020530A11241FBECFEFA4
:1000C000D8E0DEBFCDBF11E0A0E0B1E0E8E9F5E1A6
:1000D00002C005900D92A43EB107D9F723E0A4EE2B
:1000E000B1E001C01D92AC36B207E1F710E0CDE5FA
:1000F000D0E004C02197FE010E94BF0ACC35D10791
:10010000C9F70E943E070C94CA0A0C940000CF92D3
:10011000DF92EF92FF920F931F93CF93DF936C01C7
:100120007A018B01C0E0D0E0CE15DF0581F0D80167
:100130006D918D01D601ED91FC910190F081E02D42
:10014000C6010995892B11F02196EECF7E01C701DA
:10015000DF91CF911F910F91FF90EF90DF90CF90A3
:100160000895FC01538D448D252F30E0842F90E0BD
:10017000821B930B541710F0CF96089501970895A2
:10018000FC01918D828D981761F0828DDF01A80F9F
:10019000B11D5D968C91928D9F5F9F73928F90E0C1
:1001A00008958FEF9FEF0895FC01918D828D981730
:1001B00031F0828DE80FF11D858D90E008958FEF6D
:1001C0009FEF0895FC01918D228D892F90E0805C36
:1001D0009F4F821B91098F739927089586E592E0BE
:1001E0000E94E20021E0892B09F420E0822F08958B
:1001F000FC01848DDF01A80FB11DA35ABF4F2C91C4
:10020000848D90E001968F739927848FA689B78992
:100210002C93A089B1898C91837080648C93938D89
:10022000848D981306C00288F389E02D80818F7D2C
:1002300080830895EF92FF920F931F93CF93DF93E4
:10024000EC0181E0888F9B8D8C8D981305C0E88927
:10025000F989808185FD26C0F62E0B8D10E00F5F99
:100260001F4F0F731127E02E8C8DE8120CC00FB6B4
:1002700007FCFACFE889F989808185FFF5CFCE01A7
:100280000E94F800F1CF8B8DFE01E80FF11DE35ABB
:10029000FF4FF0829FB7F8940B8FEA89FB8980812A
:1002A00080620AC09FB7F894EE89FF896083E8896D
:1002B000F98980818370806480839FBF81E090E0B2
:1002C000DF91CF911F910F91FF90EF900895CF9301
:1002D000DF93EC01888D8823C9F0EA89FB8980814E
:1002E00085FD05C0A889B9898C9186FD0FC00FB620
:1002F00007FCF5CF808185FFF2CFA889B9898C9161
:1003000085FFEDCFCE010E94F800E7CFDF91CF91BE
:10031000089580E090E0892B29F00E94EE00811181
:100320000C9400000895089580E090E008950E94E4
:10033000C50ACF92DF92EF92FF920F931F93CF9354
:10034000DF93FC01C48121E020931502C093E401F6
:1003500010921902109218028385682B8AE492E0A9
:100360000E940704D0911802D13208F0BAC00E944E
:1003700095066B017C0180912402882311F1809104
:100380001B0290911C02A0911D02B0911E02892BAC
:100390008A2B8B2B81F30E94950600911B021091F2
:1003A0001C0220911D0230911E02DC01CB018C1930
:1003B0009D09AE09BF09081719072A073B07D8F698
:1003C00081C082E08093240281E0809326028FEF37
:1003D0008093230210924802D0934702A5EFB1E028
:1003E000E7E2F2E080E0D81721F09D9191938F5FD2
:1003F000FACF1092490280914902CC0FC82BC093CA
:10040000490280912502813089F5109225020E94CF
:1004100095066B017C01809149028093BB0080911D
:100420001B0290911C02A0911D02B0911E02892B0B
:100430008A2B8B2BA9F00E94950600911B0210912C
:100440001C0220911D0230911E02DC01CB018C198F
:100450009D09AE09BF09081719072A073B0790F144
:100460008091BC0083FDD7CF85EC01C085EE8093E1
:10047000BC000E9495066B017C01809124028230B1
:1004800031F580911B0290911C02A0911D02B09148
:100490001E02892B8A2B8B2B81F30E9495060091DB
:1004A0001B0210911C0220911D0230911E02DC01E2
:1004B000CB018C199D09AE09BF09081719072A0736
:1004C0003B07D8F680911A020E940E050AC080915F
:1004D00023028F3F31F080912302803211F080910E
:1004E0002302109219021092180210921502DF9145
:1004F000CF911F910F91FF90EF90DF90CF900895D3
:100500000F931F93CF938C01C62F0E9499016C2FDC
:100510006460C8010E9499016C2F6B7FC8010E9422
:10052000990183EC90E00197F1F7CF911F910F9122
:1005300008951F920F920FB60F9211242F933F939D
:100540004F935F936F937F938F939F93AF93BF93DB
:10055000EF93FF9386E592E00E94F800FF91EF9100
:10056000BF91AF919F918F917F916F915F914F91CB
:100570003F912F910F900FBE0F901F9018951F92D3
:100580000F920FB60F9211242F938F939F93EF9397
:10059000FF93E0916602F09167028081E0916C0226
:1005A000F0916D0282FD12C0908180916F028F5F89
:1005B0008F7320917002821751F0E0916F02F0E08A
:1005C000EA5AFD4F958F80936F0201C08081FF91A1
:1005D000EF919F918F912F910F900FBE0F901F90D1
:1005E00018950F931F93CF93DF938C01C62FD42FB1
:1005F000607F642B0E94800280E1C89FB0011124BB
:100600006D2BC801DF91CF911F910F910C94800247
:1006100041E00E94F10281E090E008951F920F9264
:100620000FB60F9211240F931F932F933F934F9365
:100630005F936F937F938F939F93AF93BF9320911B
:10064000840030918500B09B0BC081E086BB809117
:10065000EC019091ED0101969093ED018093EC01F6
:100660008091EE019091EF0101964091E601509149
:10067000E7018417950798F11092EF011092EE01AF
:100680008091EC019091ED01A0E0B0E0DC019927B0
:100690008827820F931FA11DB11D4091E801509141
:1006A000E9016091EA017091EB018C019D01041B4D
:1006B000150B260B370B0093F1011093F2012093D9
:1006C000F3013093F4018093E8019093E901A09342
:1006D000EA01B093EB0181E08093F00104C09093B4
:1006E000EF018093EE01BF91AF919F918F917F9128
:1006F0006F915F914F913F912F911F910F910F90AB
:100700000FBE0F901F90189540914903262F30E09F
:10071000240F311D21323105DCF4209124022430D4
:10072000C9F4FC0180E090E0861758F43091490349
:100730002191DC01A75DBC4FA30FB11D2C93019645
:10074000F3CF80914903680F6093490380E00895D7
:1007500081E0089582E00895089508950895E09154
:10076000170280911602E81730F4F0E0E85FFC4FC2
:10077000808190E008958FEF9FEF08959091170288
:1007800080911602981750F4E92FF0E0E85FFC4FD3
:10079000208130E09F5F9093170202C02FEF3FEF60
:1007A000C90108958091160290E020911702821BE2
:1007B00091090895CF92DF92EF92FF920F931F93CA
:1007C000CF93DF937C01CB018A0120911502222374
:1007D00089F0EB016B01C40ED51ECC15DD0569F067
:1007E0006991D701ED91FC910190F081E02DC70155
:1007F0000995F3CF642F0E948403C801DF91CF9144
:100800001F910F91FF90EF90DF90CF900895CF93BD
:10081000DF931F92CDB7DEB76983209115022223A3
:10082000D1F020911802203240F021E030E0FC01AC
:100830003383228380E090E015C080911902E82F75
:10084000F0E0EB50FE4F998190838F5F8093190207
:100850008093180205C061E0CE0101960E948403D6
:1008600081E090E00F90DF91CF910895CF93DF93D7
:10087000CDB7DEB728970FB6F894DEBF0FBECDBF59
:1008800098E0E0E1F1E0DE01119601900D929A9579
:10089000E1F79091FC02961710F46FEF690FFE01DB
:1008A0003196E60FF11DE60FF11D6081680F60685B
:1008B00040E083EF92E028960FB6F894DEBF0FBEBB
:1008C000CDBFDF91CF910C94F102009769F0FC014C
:1008D00001900020E9F73197AF01481B590BBC018B
:1008E00083EF92E00C94870080E090E008950C94F0
:1008F000650440E062E083EF92E00E94F1028BE346
:100900009FE10197F1F7089590E0FC01EC55FF4F4E
:100910002491FC01E057FF4F8491882399F090E0E7
:10092000880F991FFC01EA57FF4FA591B491FC0174
:10093000E458FF4F859194918FB7F894EC91E22B96
:10094000EC938FBF089590E0FC01E859FF4F24918C
:10095000FC01EC55FF4F3491FC01E057FF4FE4914F
:10096000EE2309F43CC0222339F1233091F038F40E
:100970002130A9F0223001F584B58F7D12C02730D7
:1009800091F02830A1F02430B9F4809180008F7D5F
:1009900003C0809180008F77809380000DC084B564
:1009A0008F7784BD09C08091B0008F7703C080919C
:1009B000B0008F7D8093B000F0E0EE0FFF1FE45891
:1009C000FF4FA591B4919FB7F894611104C08C9129
:1009D0003095382302C0EC913E2B3C939FBF089585
:1009E0001092240281E0809326021092250261E099
:1009F00082E10E94A30461E083E10E94A304E9EB89
:100A0000F0E080818E7F808380818D7F808388E489
:100A10008093B80085E48093BC000895CF93DF9362
:100A200091E0909328038823B9F0C091B800D09149
:100A3000BA008091BC008A7B8093BC0060E082E1B8
:100A40000E94A30460E083E10E94A3040E94F004DA
:100A5000D093BA00C093B800DF91CF91089585ED8F
:100A60008093BC0080911B0290911C02A0911D02FA
:100A7000B0911E020796A11DB11D23E0B695A79562
:100A8000979587952A95D1F72091BC0024FF1CC02B
:100A900040911B0250911C0260911D0270911E0238
:100AA000452B462B472B81F30097A105B10541F05B
:100AB00025E32A95F1F700000197A109B109E4CFD8
:100AC00080911A020C940E051092240208951F9230
:100AD0000F920FB60F9211242F933F934F935F9372
:100AE0006F937F938F939F93AF93BF93EF93FF93F6
:100AF0008091B900887F803609F49CC068F58832FF
:100B000009F45BC090F4803109F454C038F48823B0
:100B100009F4F6C0883009F44DC0F6C0883109F4F4
:100B20004CC0803209F45DC0EFC0803409F468C065
:100B300048F4803309F455C0883309F0E5C0809348
:100B40002302D8C0803509F44FC0883509F45DC050
:100B5000883409F0D9C0D6C0883909F4C7C0A8F4D0
:100B6000883709F467C038F4883609F463C08037E1
:100B700009F460C0C9C0883809F4B8C0803909F4E4
:100B80005FC0803809F0C0C05BC0803B09F486C0FC
:100B900038F4803A09F466C0883A09F47FC0B4C0DA
:100BA000803C09F4A7C0883C09F4A4C0883B09F440
:100BB0008AC0AAC08091490210C0909148028091D9
:100BC0004702981770F5E091480281E08E0F8093FC
:100BD0004802F0E0E95DFD4F80818093BB0085EC29
:100BE00086C0809323028EC0E091480281E08E0F80
:100BF000809348028091BB00F0E0E95DFD4F808367
:100C000090914802809147026EC0E091480281E0D5
:100C10008E0F809348028091BB00F0E0E95DFD4FAC
:100C200080838091260281116DC081E0809325022E
:100C300084EA61C083E08093240210926B03CFCFDB
:100C400080916B03803208F051C0E0916B0381E02A
:100C50008E0F80936B038091BB00F0E0E55BFC4F4F
:100C60008083BDCF85EC8093BC00109224028091DC
:100C70006B03803230F4E0916B03F0E0E55BFC4FF6
:100C8000108260916B0370E0E0912102F0912202EA
:100C90008BE493E0099510926B0336C084E0809357
:100CA000240210924A0310924903E0911F02F0912E
:100CB0002002099580914903811105C081E080934C
:100CC000490310922903E0914A0381E08E0F80933B
:100CD0004A03F0E0E75DFC4F80818093BB00909178
:100CE0004A0380914903981708F479CF85E88093E7
:100CF000BC000AC085EC8093BC001092240204C0A2
:100D0000109223020E942F05FF91EF91BF91AF91A6
:100D10009F918F917F916F915F914F913F912F9113
:100D20000F900FBE0F901F9018953FB7F8948091C9
:100D3000040390910503A0910603B091070326B523
:100D4000A89B05C02F3F19F00196A11DB11D3FBF03
:100D5000BA2FA92F982F8827820F911DA11DB11D91
:100D6000BC01CD0142E0660F771F881F991F4A958D
:100D7000D1F708958F929F92AF92BF92CF92DF9258
:100D8000EF92FF926B017C010E9495064B015C0182
:100D9000C114D104E104F104F1F00E949506DC01D4
:100DA000CB0188199909AA09BB09883E9340A1057E
:100DB000B10570F321E0C21AD108E108F10888EE0C
:100DC000880E83E0981EA11CB11CC114D104E1045B
:100DD000F10419F7DDCFFF90EF90DF90CF90BF9037
:100DE000AF909F908F9008951F920F920FB60F9221
:100DF00011242F933F938F939F93AF93BF93809131
:100E0000000390910103A0910203B091030330917C
:100E1000FF0223E0230F2D3720F40196A11DB11D01
:100E200005C026E8230F0296A11DB11D2093FF02E5
:100E30008093000390930103A0930203B0930303F4
:100E40008091040390910503A0910603B0910703DC
:100E50000196A11DB11D8093040390930503A093F7
:100E60000603B0930703BF91AF919F918F913F917C
:100E70002F910F900FBE0F901F901895CF93DF9377
:100E8000CDB7DEB7A1970FB6F894DEBF0FBECDBFCA
:100E9000789484B5826084BD84B5816084BD85B555
:100EA000826085BD85B5816085BD80916E00816061
:100EB00080936E0010928100809181008260809307
:100EC0008100809181008160809381008091800009
:100ED0008160809380008091B10084608093B10034
:100EE0008091B00081608093B00080917A0084602E
:100EF00080937A0080917A00826080937A0080915A
:100F00007A00816080937A0080917A008068809373
:100F10007A001092C100E0916602F091670282E0CF
:100F20008083E0916602F09167021082E091620294
:100F3000F09163021082E0916402F091650280E119
:100F4000808310926E02E0916A02F0916B0286E05B
:100F50008083E0916802F0916902808180618083E2
:100F6000E0916802F0916902808188608083E0915D
:100F70006802F0916902808180688083E091680254
:100F8000F091690280818F7D808310921702109208
:100F9000160210921902109218020E94F0048CEAB4
:100FA00093E09093200280931F028DEA93E0909348
:100FB0002202809321021092F8028091FC0282307A
:100FC00018F098E09093F8029091FD02992339F07F
:100FD000813029F48091F80284608093F80262E302
:100FE00070E080E090E00E94BA066091FE0283EF1C
:100FF00092E00E94990168EE73E080E090E00E9428
:10100000BA0660E383EF92E00E9480020BE416E4EC
:10101000C8010197F1F760E383EF92E00E9480023C
:10102000C8010197F1F760E383EF92E00E9480022C
:1010300083E592E00197F1F760E283EF92E00E948E
:1010400080026091F802606240E083EF92E00E94CB
:10105000F10284E08093F90240E06CE083EF92E0DB
:101060000E94F10240E061E083EF92E00E94F10211
:101070008BE39FE10197F1F782E08093FA0240E071
:1010800066E083EF92E00E94F1020E94790488E01A
:101090008093FE0260E083EF92E00E94990187E076
:1010A0000E9484048AE00E9484048BE00E948404ED
:1010B0008CE00E94840488E00E94840461E087E060
:1010C0000E94A30461E08AE00E94A30461E08BE037
:1010D0000E94A30461E08CE00E94A30461E088E028
:1010E0000E94A30440E068E483EF92E00E94F102D2
:1010F00008E011E0F80161918F0183EF92E00E9416
:101100000803F1E000311F07A9F740E060E583EF35
:1011100092E00E94F10200E011E098E0E92E91E0F7
:10112000F92EF80161918F0183EF92E00E9408038C
:10113000E016F106B1F71092EF011092EE01109255
:10114000ED011092EC011092E8011092E901109269
:10115000EA011092EB011092F001809180008091E1
:1011600081001092810010928000109285001092F0
:10117000840081E086BB10926F008091B000809166
:10118000B1001092B10082E08093B0009CE7909390
:10119000B30097E09093E50187BB1092B2002DE772
:1011A00030E03093E7012093E6012FB7F89483BD38
:1011B0003091E5013093B100809370008BE0815055
:1011C000F1F7909381002FBF8AE0482E512C612CBB
:1011D000712C08EE13E00E94790460E080E00E9428
:1011E000360488E491E00E9477048091F00188231E
:1011F00009F45AC08FB7F894C090F101D090F20171
:10120000E090F301F090F4011092F0018FBF61E0E3
:1012100089E00E94360419A2A70196015E01F1E25D
:10122000AF0EB11CCA01B901A30192010E949D0A2F
:10123000605DF50162935F0121153105410551059E
:1012400089F7CF010E94650489E591E00E94770447
:10125000FCE2CF16F5E6DF06E104F10438F061E0C8
:1012600080E00E9436048CE591E01CC089E3C8163A
:101270008AE4D806E104F104B8F461E080E00E9459
:10128000360486E691E00E947704E8E6CE16E2E4B2
:10129000DE06E104F10440F461E080E00E943604DF
:1012A00080E791E00E9477040150110909F093CF83
:1012B00061E080E00E94360481E891E00E947704BA
:1012C0000E94790460E081E00E94360482E991E0A6
:1012D0000E94770468E873E180E090E00E94BA061B
:1012E0000E94790460E080E00E94360481EA91E087
:1012F0000E94770461E083EF92E00E94080382EE8F
:1013000091E00E94770460E087E00E94A30460E21D
:101310007EE480E090E00E94BA0661E087E00E94EF
:10132000A3040E94790460E080E00E9436048DEA04
:1013300091E00E94770460E08AE00E94A30460E2EA
:101340007EE480E090E00E94BA0661E08AE00E94BC
:10135000A3040E94790460E080E00E9436048DEBD3
:1013600091E00E94770462E083EF92E00E9408031C
:1013700061E083EF92E00E94080380E691E00E9422
:10138000770404E110E060E088E00E94A30464EFC9
:1013900071E080E090E00E94BA0661E088E00E947F
:1013A000A30468EC70E080E090E00E94BA0660E080
:1013B0008CE00E94A30464EF71E080E090E00E9462
:1013C000BA0661E08CE00E94A30468EC70E080E063
:1013D00090E00E94BA0601501109A9F668E873E18D
:1013E00080E090E00E94BA060E94790460E080E00C
:1013F0000E94360487EC91E00E94770462E083EF5C
:1014000092E00E94080361E083EF92E00E940803EB
:1014100082EE91E00E94770460E08BE00E94A304DA
:1014200060E27EE480E090E00E94BA0660E08CE03A
:101430000E94A30468E873E180E090E00E94BA068D
:1014400061E08CE00E94A30468E873E180E090E032
:101450000E94BA0660E08CE00E94A30460E177E29B
:1014600080E090E00E94BA0661E08CE00E94A30454
:1014700060E177E280E090E00E94BA0661E08BE0F4
:101480000E94A30460E080E00E94360483ED91E0B6
:101490000E94770468E873E180E090E00E94BA0659
:1014A0000E94890196CEEAE4F2E01382128288EE6D
:1014B00093E0A0E0B0E084839583A683B7832CE11A
:1014C00031E031832083E6E5F2E0138212828483E7
:1014D0009583A683B7838EE291E09183808385EC28
:1014E00090E09587848784EC90E09787868780ECEE
:1014F00090E0918B808B81EC90E0938B828B82ECDF
:1015000090E0958B848B86EC90E0978B868B118E88
:10151000128E138E148EE3EFF2E01382128280E4B7
:1015200091E0918380838FE3848380E1808782E0F0
:101530008187128688E083870895A1E21A2EAA1B6C
:10154000BB1BFD010DC0AA1FBB1FEE1FFF1FA21773
:10155000B307E407F50720F0A21BB30BE40BF50B70
:10156000661F771F881F991F1A9469F760957095F9
:10157000809590959B01AC01BD01CF010895EE0FC0
:10158000FF1F0590F491E02D099481E090E0F8941C
:081590000C94CA0AF894FFCF85
:1015980000000E1010110E040E000E010F110F00A6
:1015A8000000400014005400000000000704DA03A3
:1015B8009401AE03D203BE03AF03000000001A017A
:1015C8008700B1006701E200C000D40000000000FD
:1015D8000803870094019301204672657175656E52
:1015E80063696D6574726F2000487A0056617A6984
:1015F8006F2020202000416C746F202020202000C4
:1016080020446573636F6E65637461646F20202086
:1016180000202020202020202020202020202020E2
:10162800200020204175746F205465737465202054
:101638000020202056616C2E2053616200205661E4
:101648006C2E20416D616369616E746500202020F5
:10165800204167697461002043656E74726966751C
:1016680067610054657374652046696E616C697AB8
:0416780061646F003A
:00000001FF
